100222 MSFAA RECEIVED                          202111031617000001                                                                                                                                                                                                                                                                                                                                                                                                                                                                                                                                                      
2000000001000111111111R2021112020211121PT                                                                                                                                                                                       
2000000001001222222222C                PT       ON20211124                                                                                                                                                                      
2000000001002333333333R2021112220211123PT                                                                                                                                                                                       
999MSFAA RECEIVED                          000000003000000666666666                                                                                                                                                                                                                                                                                                                                                                                                                                                                                                                                                     