100AESTSFAS TO SIMS BRIDGE                    20240709110630                                                                                                                                                                                              
2000000075085000000000075085GIORGIO                  GIOVANNI       19551002112383310                  00000000000000000000000000000000000000000000000000000000000133610000000000000000000000000000000000000000000000000000000000000000                   
2000000075086000000000075086GIORGIO                  GIOVANNI       19720405725732813                  00000000000000000000000000000000000000000000000000000000000000000000000000000000000000000000000000000000004140000000000000000000                   
2000000075087000000000075087GIORGIO                  GIOVANNI       19720405725732812                  000000000000000000000000000000000000000000000000000000000000000000000000000000000000000000000000000000000414000000000-0000000000                   
999000048090000009580094900                                                                                                                                                                                                                               