100AESTSFAS TO SIMS BRIDGE                    20240314092935                                                                                                                                                                                              
30109500003602023P19865202308012024020100000040000000000300000003000000000001650000000024000000050020232024                                                                                                                                               
30109500003612023P19866202308012024020100000050000000000400000004000000000001660000000025000000060020232024                                                                                                                                               
999000057213000012417587700