01 222NEW PT ENTITLEMENT FEEDBACK             000000004202403201254                                                                                                                                                                                                                                                                                                                                                                                                                                                                                                                                                                                                                                                                                                                                                                   
02FNAM                     LSNAME            399800085O19570211SI  2525 DONSTREET                                                                                                          Victoria                 BC  CAN V8W2H9                                                                                                                                                                                                                               2024031100000124800077772024030920240720BPTW18  402020240319        0000000000000000000047800478000000000000000000000000000000                                                               test@example.test                                                          P20240318005000050N                        EDU-00128                                         
02FNAM                     LSNAME            159748391O19570211SI  2525 DONSTREET                                                                                                          Victoria                 BC  CAN V8W2H9                                                                                                                                                                                                                               2024031100000124800088882024030920240720BPTW18  402020240319        0000000000000000000047800478000000000000000000000000000000                                                               test@example.test                                                          P20240318005000050N                        EDU-00128                                         
99NEW PT ENTITLEMENT FEEDBACK             000000005000000002000000559548476                                                                                                                                                                                                                                                                                                                                                                                                                                                                                                                                                                                                                                                                                                                                                           
