7200                        20240101 BCSAP00000      00000001                                                                                     0
720110000000120240001NAME                           JOHN                         1999010110000000000                                              0
7201100000001202400025077 111 AA                  DUMMY                       OO V0Y 0V0                                                          0
7201100000001202400220001010101010101010010000VERIFICATION_ID:00000000101BCSA                                                                     0
720110000000120240150000050000                                                                                                              15000 0
7201100000001202401011101010101010101010010000010100100000000000000000101BCSA                                                                     0
720110000000120241010000050000                                                                                                              10100 0
72011000000012024A010BC                                                                                                                           0
72011000000012024A015BC                                                                                                                           0
72011000000012024A030N00000000                                                                                                                    0