1AJAACONFIRMATION        20230418                                                                                                                     
2AJBHAWDVALID01BCAG000153000999999999LASTNAME                 FIRSTNAME      20010326APPLNUMB010489311     060202301092023062220230401YENRLDT01N001000
2AJBHAWDVALID02CSLP000153000999999999LASTNAME                 FIRSTNAME      20010326APPLNUMB020489311     060202301092023062220230401YENRLDT02N001000
2AJBHAWDVALID03BGPD000153000999999999LASTNAME                 FIRST·ÈÌÛ      20010326APPLNUMB030489311     060202301092023062220230401NENRLDT03N001000
2AJBH1119353191BCAG000139000999999999LASTNAME                 FIRSTNAME      1995050320225295820497985     060202301092023062220230401Y20230418N000000
3000004